{
  "_format": "hh-sol-artifact-1",
  "contractName": "EAS",
  "sourceName": "@ethereum-attestation-service/eas-contracts/contracts/EAS.sol",
  "abi": [
    {
      "inputs": [
        {
          "internalType": "contract ISchemaRegistry",
          "name": "registry",
          "type": "address"
        }
      ],
      "stateMutability": "nonpayable",
      "type": "constructor"
    },
    {
      "inputs": [],
      "name": "AccessDenied",
      "type": "error"
    },
    {
      "inputs": [],
      "name": "AlreadyRevoked",
      "type": "error"
    },
    {
      "inputs": [],
      "name": "AlreadyRevokedOffchain",
      "type": "error"
    },
    {
      "inputs": [],
      "name": "AlreadyTimestamped",
      "type": "error"
    },
    {
      "inputs": [],
      "name": "InsufficientValue",
      "type": "error"
    },
    {
      "inputs": [],
      "name": "InvalidAttestation",
      "type": "error"
    },
    {
      "inputs": [],
      "name": "InvalidAttestations",
      "type": "error"
    },
    {
      "inputs": [],
      "name": "InvalidExpirationTime",
      "type": "error"
    },
    {
      "inputs": [],
      "name": "InvalidLength",
      "type": "error"
    },
    {
      "inputs": [],
      "name": "InvalidOffset",
      "type": "error"
    },
    {
      "inputs": [],
      "name": "InvalidRegistry",
      "type": "error"
    },
    {
      "inputs": [],
      "name": "InvalidRevocation",
      "type": "error"
    },
    {
      "inputs": [],
      "name": "InvalidRevocations",
      "type": "error"
    },
    {
      "inputs": [],
      "name": "InvalidSchema",
      "type": "error"
    },
    {
      "inputs": [],
      "name": "InvalidShortString",
      "type": "error"
    },
    {
      "inputs": [],
      "name": "InvalidSignature",
      "type": "error"
    },
    {
      "inputs": [],
      "name": "InvalidVerifier",
      "type": "error"
    },
    {
      "inputs": [],
      "name": "Irrevocable",
      "type": "error"
    },
    {
      "inputs": [],
      "name": "NotFound",
      "type": "error"
    },
    {
      "inputs": [],
      "name": "NotPayable",
      "type": "error"
    },
    {
      "inputs": [
        {
          "internalType": "string",
          "name": "str",
          "type": "string"
        }
      ],
      "name": "StringTooLong",
      "type": "error"
    },
    {
      "inputs": [],
      "name": "WrongSchema",
      "type": "error"
    },
    {
      "anonymous": false,
      "inputs": [
        {
          "indexed": true,
          "internalType": "address",
          "name": "recipient",
          "type": "address"
        },
        {
          "indexed": true,
          "internalType": "address",
          "name": "attester",
          "type": "address"
        },
        {
          "indexed": false,
          "internalType": "bytes32",
          "name": "uid",
          "type": "bytes32"
        },
        {
          "indexed": true,
          "internalType": "bytes32",
          "name": "schema",
          "type": "bytes32"
        }
      ],
      "name": "Attested",
      "type": "event"
    },
    {
      "anonymous": false,
      "inputs": [],
      "name": "EIP712DomainChanged",
      "type": "event"
    },
    {
      "anonymous": false,
      "inputs": [
        {
          "indexed": true,
          "internalType": "address",
          "name": "recipient",
          "type": "address"
        },
        {
          "indexed": true,
          "internalType": "address",
          "name": "attester",
          "type": "address"
        },
        {
          "indexed": false,
          "internalType": "bytes32",
          "name": "uid",
          "type": "bytes32"
        },
        {
          "indexed": true,
          "internalType": "bytes32",
          "name": "schema",
          "type": "bytes32"
        }
      ],
      "name": "Revoked",
      "type": "event"
    },
    {
      "anonymous": false,
      "inputs": [
        {
          "indexed": true,
          "internalType": "address",
          "name": "revoker",
          "type": "address"
        },
        {
          "indexed": true,
          "internalType": "bytes32",
          "name": "data",
          "type": "bytes32"
        },
        {
          "indexed": true,
          "internalType": "uint64",
          "name": "timestamp",
          "type": "uint64"
        }
      ],
      "name": "RevokedOffchain",
      "type": "event"
    },
    {
      "anonymous": false,
      "inputs": [
        {
          "indexed": true,
          "internalType": "bytes32",
          "name": "data",
          "type": "bytes32"
        },
        {
          "indexed": true,
          "internalType": "uint64",
          "name": "timestamp",
          "type": "uint64"
        }
      ],
      "name": "Timestamped",
      "type": "event"
    },
    {
      "inputs": [
        {
          "components": [
            {
              "internalType": "bytes32",
              "name": "schema",
              "type": "bytes32"
            },
            {
              "components": [
                {
                  "internalType": "address",
                  "name": "recipient",
                  "type": "address"
                },
                {
                  "internalType": "uint64",
                  "name": "expirationTime",
                  "type": "uint64"
                },
                {
                  "internalType": "bool",
                  "name": "revocable",
                  "type": "bool"
                },
                {
                  "internalType": "bytes32",
                  "name": "refUID",
                  "type": "bytes32"
                },
                {
                  "internalType": "bytes",
                  "name": "data",
                  "type": "bytes"
                },
                {
                  "internalType": "uint256",
                  "name": "value",
                  "type": "uint256"
                }
              ],
              "internalType": "struct AttestationRequestData",
              "name": "data",
              "type": "tuple"
            }
          ],
          "internalType": "struct AttestationRequest",
          "name": "request",
          "type": "tuple"
        }
      ],
      "name": "attest",
      "outputs": [
        {
          "internalType": "bytes32",
          "name": "",
          "type": "bytes32"
        }
      ],
      "stateMutability": "payable",
      "type": "function"
    },
    {
      "inputs": [
        {
          "components": [
            {
              "internalType": "bytes32",
              "name": "schema",
              "type": "bytes32"
            },
            {
              "components": [
                {
                  "internalType": "address",
                  "name": "recipient",
                  "type": "address"
                },
                {
                  "internalType": "uint64",
                  "name": "expirationTime",
                  "type": "uint64"
                },
                {
                  "internalType": "bool",
                  "name": "revocable",
                  "type": "bool"
                },
                {
                  "internalType": "bytes32",
                  "name": "refUID",
                  "type": "bytes32"
                },
                {
                  "internalType": "bytes",
                  "name": "data",
                  "type": "bytes"
                },
                {
                  "internalType": "uint256",
                  "name": "value",
                  "type": "uint256"
                }
              ],
              "internalType": "struct AttestationRequestData",
              "name": "data",
              "type": "tuple"
            },
            {
              "components": [
                {
                  "internalType": "uint8",
                  "name": "v",
                  "type": "uint8"
                },
                {
                  "internalType": "bytes32",
                  "name": "r",
                  "type": "bytes32"
                },
                {
                  "internalType": "bytes32",
                  "name": "s",
                  "type": "bytes32"
                }
              ],
              "internalType": "struct EIP712Signature",
              "name": "signature",
              "type": "tuple"
            },
            {
              "internalType": "address",
              "name": "attester",
              "type": "address"
            }
          ],
          "internalType": "struct DelegatedAttestationRequest",
          "name": "delegatedRequest",
          "type": "tuple"
        }
      ],
      "name": "attestByDelegation",
      "outputs": [
        {
          "internalType": "bytes32",
          "name": "",
          "type": "bytes32"
        }
      ],
      "stateMutability": "payable",
      "type": "function"
    },
    {
      "inputs": [],
      "name": "eip712Domain",
      "outputs": [
        {
          "internalType": "bytes1",
          "name": "fields",
          "type": "bytes1"
        },
        {
          "internalType": "string",
          "name": "name",
          "type": "string"
        },
        {
          "internalType": "string",
          "name": "version",
          "type": "string"
        },
        {
          "internalType": "uint256",
          "name": "chainId",
          "type": "uint256"
        },
        {
          "internalType": "address",
          "name": "verifyingContract",
          "type": "address"
        },
        {
          "internalType": "bytes32",
          "name": "salt",
          "type": "bytes32"
        },
        {
          "internalType": "uint256[]",
          "name": "extensions",
          "type": "uint256[]"
        }
      ],
      "stateMutability": "view",
      "type": "function"
    },
    {
      "inputs": [],
      "name": "getAttestTypeHash",
      "outputs": [
        {
          "internalType": "bytes32",
          "name": "",
          "type": "bytes32"
        }
      ],
      "stateMutability": "pure",
      "type": "function"
    },
    {
      "inputs": [
        {
          "internalType": "bytes32",
          "name": "uid",
          "type": "bytes32"
        }
      ],
      "name": "getAttestation",
      "outputs": [
        {
          "components": [
            {
              "internalType": "bytes32",
              "name": "uid",
              "type": "bytes32"
            },
            {
              "internalType": "bytes32",
              "name": "schema",
              "type": "bytes32"
            },
            {
              "internalType": "uint64",
              "name": "time",
              "type": "uint64"
            },
            {
              "internalType": "uint64",
              "name": "expirationTime",
              "type": "uint64"
            },
            {
              "internalType": "uint64",
              "name": "revocationTime",
              "type": "uint64"
            },
            {
              "internalType": "bytes32",
              "name": "refUID",
              "type": "bytes32"
            },
            {
              "internalType": "address",
              "name": "recipient",
              "type": "address"
            },
            {
              "internalType": "address",
              "name": "attester",
              "type": "address"
            },
            {
              "internalType": "bool",
              "name": "revocable",
              "type": "bool"
            },
            {
              "internalType": "bytes",
              "name": "data",
              "type": "bytes"
            }
          ],
          "internalType": "struct Attestation",
          "name": "",
          "type": "tuple"
        }
      ],
      "stateMutability": "view",
      "type": "function"
    },
    {
      "inputs": [],
      "name": "getDomainSeparator",
      "outputs": [
        {
          "internalType": "bytes32",
          "name": "",
          "type": "bytes32"
        }
      ],
      "stateMutability": "view",
      "type": "function"
    },
    {
      "inputs": [],
      "name": "getName",
      "outputs": [
        {
          "internalType": "string",
          "name": "",
          "type": "string"
        }
      ],
      "stateMutability": "view",
      "type": "function"
    },
    {
      "inputs": [
        {
          "internalType": "address",
          "name": "account",
          "type": "address"
        }
      ],
      "name": "getNonce",
      "outputs": [
        {
          "internalType": "uint256",
          "name": "",
          "type": "uint256"
        }
      ],
      "stateMutability": "view",
      "type": "function"
    },
    {
      "inputs": [
        {
          "internalType": "address",
          "name": "revoker",
          "type": "address"
        },
        {
          "internalType": "bytes32",
          "name": "data",
          "type": "bytes32"
        }
      ],
      "name": "getRevokeOffchain",
      "outputs": [
        {
          "internalType": "uint64",
          "name": "",
          "type": "uint64"
        }
      ],
      "stateMutability": "view",
      "type": "function"
    },
    {
      "inputs": [],
      "name": "getRevokeTypeHash",
      "outputs": [
        {
          "internalType": "bytes32",
          "name": "",
          "type": "bytes32"
        }
      ],
      "stateMutability": "pure",
      "type": "function"
    },
    {
      "inputs": [],
      "name": "getSchemaRegistry",
      "outputs": [
        {
          "internalType": "contract ISchemaRegistry",
          "name": "",
          "type": "address"
        }
      ],
      "stateMutability": "view",
      "type": "function"
    },
    {
      "inputs": [
        {
          "internalType": "bytes32",
          "name": "data",
          "type": "bytes32"
        }
      ],
      "name": "getTimestamp",
      "outputs": [
        {
          "internalType": "uint64",
          "name": "",
          "type": "uint64"
        }
      ],
      "stateMutability": "view",
      "type": "function"
    },
    {
      "inputs": [
        {
          "internalType": "bytes32",
          "name": "uid",
          "type": "bytes32"
        }
      ],
      "name": "isAttestationValid",
      "outputs": [
        {
          "internalType": "bool",
          "name": "",
          "type": "bool"
        }
      ],
      "stateMutability": "view",
      "type": "function"
    },
    {
      "inputs": [
        {
          "components": [
            {
              "internalType": "bytes32",
              "name": "schema",
              "type": "bytes32"
            },
            {
              "components": [
                {
                  "internalType": "address",
                  "name": "recipient",
                  "type": "address"
                },
                {
                  "internalType": "uint64",
                  "name": "expirationTime",
                  "type": "uint64"
                },
                {
                  "internalType": "bool",
                  "name": "revocable",
                  "type": "bool"
                },
                {
                  "internalType": "bytes32",
                  "name": "refUID",
                  "type": "bytes32"
                },
                {
                  "internalType": "bytes",
                  "name": "data",
                  "type": "bytes"
                },
                {
                  "internalType": "uint256",
                  "name": "value",
                  "type": "uint256"
                }
              ],
              "internalType": "struct AttestationRequestData[]",
              "name": "data",
              "type": "tuple[]"
            }
          ],
          "internalType": "struct MultiAttestationRequest[]",
          "name": "multiRequests",
          "type": "tuple[]"
        }
      ],
      "name": "multiAttest",
      "outputs": [
        {
          "internalType": "bytes32[]",
          "name": "",
          "type": "bytes32[]"
        }
      ],
      "stateMutability": "payable",
      "type": "function"
    },
    {
      "inputs": [
        {
          "components": [
            {
              "internalType": "bytes32",
              "name": "schema",
              "type": "bytes32"
            },
            {
              "components": [
                {
                  "internalType": "address",
                  "name": "recipient",
                  "type": "address"
                },
                {
                  "internalType": "uint64",
                  "name": "expirationTime",
                  "type": "uint64"
                },
                {
                  "internalType": "bool",
                  "name": "revocable",
                  "type": "bool"
                },
                {
                  "internalType": "bytes32",
                  "name": "refUID",
                  "type": "bytes32"
                },
                {
                  "internalType": "bytes",
                  "name": "data",
                  "type": "bytes"
                },
                {
                  "internalType": "uint256",
                  "name": "value",
                  "type": "uint256"
                }
              ],
              "internalType": "struct AttestationRequestData[]",
              "name": "data",
              "type": "tuple[]"
            },
            {
              "components": [
                {
                  "internalType": "uint8",
                  "name": "v",
                  "type": "uint8"
                },
                {
                  "internalType": "bytes32",
                  "name": "r",
                  "type": "bytes32"
                },
                {
                  "internalType": "bytes32",
                  "name": "s",
                  "type": "bytes32"
                }
              ],
              "internalType": "struct EIP712Signature[]",
              "name": "signatures",
              "type": "tuple[]"
            },
            {
              "internalType": "address",
              "name": "attester",
              "type": "address"
            }
          ],
          "internalType": "struct MultiDelegatedAttestationRequest[]",
          "name": "multiDelegatedRequests",
          "type": "tuple[]"
        }
      ],
      "name": "multiAttestByDelegation",
      "outputs": [
        {
          "internalType": "bytes32[]",
          "name": "",
          "type": "bytes32[]"
        }
      ],
      "stateMutability": "payable",
      "type": "function"
    },
    {
      "inputs": [
        {
          "components": [
            {
              "internalType": "bytes32",
              "name": "schema",
              "type": "bytes32"
            },
            {
              "components": [
                {
                  "internalType": "bytes32",
                  "name": "uid",
                  "type": "bytes32"
                },
                {
                  "internalType": "uint256",
                  "name": "value",
                  "type": "uint256"
                }
              ],
              "internalType": "struct RevocationRequestData[]",
              "name": "data",
              "type": "tuple[]"
            }
          ],
          "internalType": "struct MultiRevocationRequest[]",
          "name": "multiRequests",
          "type": "tuple[]"
        }
      ],
      "name": "multiRevoke",
      "outputs": [],
      "stateMutability": "payable",
      "type": "function"
    },
    {
      "inputs": [
        {
          "components": [
            {
              "internalType": "bytes32",
              "name": "schema",
              "type": "bytes32"
            },
            {
              "components": [
                {
                  "internalType": "bytes32",
                  "name": "uid",
                  "type": "bytes32"
                },
                {
                  "internalType": "uint256",
                  "name": "value",
                  "type": "uint256"
                }
              ],
              "internalType": "struct RevocationRequestData[]",
              "name": "data",
              "type": "tuple[]"
            },
            {
              "components": [
                {
                  "internalType": "uint8",
                  "name": "v",
                  "type": "uint8"
                },
                {
                  "internalType": "bytes32",
                  "name": "r",
                  "type": "bytes32"
                },
                {
                  "internalType": "bytes32",
                  "name": "s",
                  "type": "bytes32"
                }
              ],
              "internalType": "struct EIP712Signature[]",
              "name": "signatures",
              "type": "tuple[]"
            },
            {
              "internalType": "address",
              "name": "revoker",
              "type": "address"
            }
          ],
          "internalType": "struct MultiDelegatedRevocationRequest[]",
          "name": "multiDelegatedRequests",
          "type": "tuple[]"
        }
      ],
      "name": "multiRevokeByDelegation",
      "outputs": [],
      "stateMutability": "payable",
      "type": "function"
    },
    {
      "inputs": [
        {
          "internalType": "bytes32[]",
          "name": "data",
          "type": "bytes32[]"
        }
      ],
      "name": "multiRevokeOffchain",
      "outputs": [
        {
          "internalType": "uint64",
          "name": "",
          "type": "uint64"
        }
      ],
      "stateMutability": "nonpayable",
      "type": "function"
    },
    {
      "inputs": [
        {
          "internalType": "bytes32[]",
          "name": "data",
          "type": "bytes32[]"
        }
      ],
      "name": "multiTimestamp",
      "outputs": [
        {
          "internalType": "uint64",
          "name": "",
          "type": "uint64"
        }
      ],
      "stateMutability": "nonpayable",
      "type": "function"
    },
    {
      "inputs": [
        {
          "components": [
            {
              "internalType": "bytes32",
              "name": "schema",
              "type": "bytes32"
            },
            {
              "components": [
                {
                  "internalType": "bytes32",
                  "name": "uid",
                  "type": "bytes32"
                },
                {
                  "internalType": "uint256",
                  "name": "value",
                  "type": "uint256"
                }
              ],
              "internalType": "struct RevocationRequestData",
              "name": "data",
              "type": "tuple"
            }
          ],
          "internalType": "struct RevocationRequest",
          "name": "request",
          "type": "tuple"
        }
      ],
      "name": "revoke",
      "outputs": [],
      "stateMutability": "payable",
      "type": "function"
    },
    {
      "inputs": [
        {
          "components": [
            {
              "internalType": "bytes32",
              "name": "schema",
              "type": "bytes32"
            },
            {
              "components": [
                {
                  "internalType": "bytes32",
                  "name": "uid",
                  "type": "bytes32"
                },
                {
                  "internalType": "uint256",
                  "name": "value",
                  "type": "uint256"
                }
              ],
              "internalType": "struct RevocationRequestData",
              "name": "data",
              "type": "tuple"
            },
            {
              "components": [
                {
                  "internalType": "uint8",
                  "name": "v",
                  "type": "uint8"
                },
                {
                  "internalType": "bytes32",
                  "name": "r",
                  "type": "bytes32"
                },
                {
                  "internalType": "bytes32",
                  "name": "s",
                  "type": "bytes32"
                }
              ],
              "internalType": "struct EIP712Signature",
              "name": "signature",
              "type": "tuple"
            },
            {
              "internalType": "address",
              "name": "revoker",
              "type": "address"
            }
          ],
          "internalType": "struct DelegatedRevocationRequest",
          "name": "delegatedRequest",
          "type": "tuple"
        }
      ],
      "name": "revokeByDelegation",
      "outputs": [],
      "stateMutability": "payable",
      "type": "function"
    },
    {
      "inputs": [
        {
          "internalType": "bytes32",
          "name": "data",
          "type": "bytes32"
        }
      ],
      "name": "revokeOffchain",
      "outputs": [
        {
          "internalType": "uint64",
          "name": "",
          "type": "uint64"
        }
      ],
      "stateMutability": "nonpayable",
      "type": "function"
    },
    {
      "inputs": [
        {
          "internalType": "bytes32",
          "name": "data",
          "type": "bytes32"
        }
      ],
      "name": "timestamp",
      "outputs": [
        {
          "internalType": "uint64",
          "name": "",
          "type": "uint64"
        }
      ],
      "stateMutability": "nonpayable",
      "type": "function"
    },
    {
      "inputs": [],
      "name": "version",
      "outputs": [
        {
          "internalType": "string",
          "name": "",
          "type": "string"
        }
      ],
      "stateMutability": "view",
      "type": "function"
    }
  ],
  "bytecode": "0x6101e06040523480156200001257600080fd5b50604051620069d5380380620069d58339818101604052810190620000389190620003db565b6040518060400160405280600381526020017f45415300000000000000000000000000000000000000000000000000000000008152506040518060400160405280600581526020017f312e302e300000000000000000000000000000000000000000000000000000008152508181600160008082608081815250508160a081815250508060c08181525050505050620000dc6000836200023060201b90919060201c565b6101808181525050620000fa6001826200023060201b90919060201c565b6101a0818152505081805190602001206101408181525050808051906020012061016081815250504661010081815250506200013b6200028860201b60201c565b60e081815250503073ffffffffffffffffffffffffffffffffffffffff166101208173ffffffffffffffffffffffffffffffffffffffff1681525050505081600290816200018a919062000687565b505050600073ffffffffffffffffffffffffffffffffffffffff168173ffffffffffffffffffffffffffffffffffffffff1603620001f4576040517f11a1e69700000000000000000000000000000000000000000000000000000000815260040160405180910390fd5b8073ffffffffffffffffffffffffffffffffffffffff166101c08173ffffffffffffffffffffffffffffffffffffffff1681525050506200095d565b600060208351101562000256576200024e83620002e660201b60201c565b905062000282565b8262000268836200035360201b60201c565b600001908162000279919062000687565b5060ff60001b90505b92915050565b60007f8b73c3c69bb8fe3d512ecc4cf759cc79239f7b179b0ffacaa9a75d522b39400f61014051610160514630604051602001620002cb959493929190620007ab565b60405160208183030381529060405280519060200120905090565b600080829050601f815111156200033657826040517f305a27a90000000000000000000000000000000000000000000000000000000081526004016200032d919062000897565b60405180910390fd5b8051816200034490620008ed565b60001c1760001b915050919050565b6000819050919050565b600080fd5b600073ffffffffffffffffffffffffffffffffffffffff82169050919050565b60006200038f8262000362565b9050919050565b6000620003a38262000382565b9050919050565b620003b58162000396565b8114620003c157600080fd5b50565b600081519050620003d581620003aa565b92915050565b600060208284031215620003f457620003f36200035d565b5b60006200040484828501620003c4565b91505092915050565b600081519050919050565b7f4e487b7100000000000000000000000000000000000000000000000000000000600052604160045260246000fd5b7f4e487b7100000000000000000000000000000000000000000000000000000000600052602260045260246000fd5b600060028204905060018216806200048f57607f821691505b602082108103620004a557620004a462000447565b5b50919050565b60008190508160005260206000209050919050565b60006020601f8301049050919050565b600082821b905092915050565b6000600883026200050f7fffffffffffffffffffffffffffffffffffffffffffffffffffffffffffffffff82620004d0565b6200051b8683620004d0565b95508019841693508086168417925050509392505050565b6000819050919050565b6000819050919050565b600062000568620005626200055c8462000533565b6200053d565b62000533565b9050919050565b6000819050919050565b620005848362000547565b6200059c62000593826200056f565b848454620004dd565b825550505050565b600090565b620005b3620005a4565b620005c081848462000579565b505050565b5b81811015620005e857620005dc600082620005a9565b600181019050620005c6565b5050565b601f82111562000637576200060181620004ab565b6200060c84620004c0565b810160208510156200061c578190505b620006346200062b85620004c0565b830182620005c5565b50505b505050565b600082821c905092915050565b60006200065c600019846008026200063c565b1980831691505092915050565b600062000677838362000649565b9150826002028217905092915050565b62000692826200040d565b67ffffffffffffffff811115620006ae57620006ad62000418565b5b620006ba825462000476565b620006c7828285620005ec565b600060209050601f831160018114620006ff5760008415620006ea578287015190505b620006f6858262000669565b86555062000766565b601f1984166200070f86620004ab565b60005b82811015620007395784890151825560018201915060208501945060208101905062000712565b8683101562000759578489015162000755601f89168262000649565b8355505b6001600288020188555050505b505050505050565b6000819050919050565b62000783816200076e565b82525050565b620007948162000533565b82525050565b620007a58162000382565b82525050565b600060a082019050620007c2600083018862000778565b620007d1602083018762000778565b620007e0604083018662000778565b620007ef606083018562000789565b620007fe60808301846200079a565b9695505050505050565b600082825260208201905092915050565b60005b83811015620008395780820151818401526020810190506200081c565b60008484015250505050565b6000601f19601f8301169050919050565b600062000863826200040d565b6200086f818562000808565b93506200088181856020860162000819565b6200088c8162000845565b840191505092915050565b60006020820190508181036000830152620008b3818462000856565b905092915050565b600081519050919050565b6000819050602082019050919050565b6000620008e482516200076e565b80915050919050565b6000620008fa82620008bb565b826200090684620008c6565b90506200091381620008d6565b925060208210156200095657620009517fffffffffffffffffffffffffffffffffffffffffffffffffffffffffffffffff83602003600802620004d0565b831692505b5050919050565b60805160a05160c05160e05161010051610120516101405161016051610180516101a0516101c051615fe3620009f260003960008181611543015281816117ed0152611f4d01526000610d8c01526000610d58015260006132860152600061326501526000612b3f01526000612b9501526000612bbe01526000610a7301526000610a4a01526000610a210152615fe36000f3fe60806040526004361061014b5760003560e01c8063b469318d116100b6578063e45d03f91161006f578063e45d03f9146104dd578063e57a6b1b146104f9578063e71ff36514610515578063ed24911d14610552578063f10b5cc81461057d578063f17325e7146105a85761014b565b8063b469318d1461038e578063b83010d3146103cb578063cf190f34146103f6578063d45c443514610433578063e13458fc14610470578063e30bb563146104a05761014b565b80634cb7e9e5116101085780634cb7e9e51461026c5780634d0030701461028857806354fd4d50146102c5578063831e05a1146102f057806384b0196e14610320578063a3112a64146103515761014b565b806312b11a171461015057806313893f611461017b57806317d7de7c146101b85780632d0335ab146101e357806344adc90e146102205780634692626714610250575b600080fd5b34801561015c57600080fd5b506101656105d8565b6040516101729190613b32565b60405180910390f35b34801561018757600080fd5b506101a2600480360381019061019d9190613bc6565b610603565b6040516101af9190613c36565b60405180910390f35b3480156101c457600080fd5b506101cd610663565b6040516101da9190613ce1565b60405180910390f35b3480156101ef57600080fd5b5061020a60048036038101906102059190613d61565b6106f5565b6040516102179190613da7565b60405180910390f35b61023a60048036038101906102359190613e18565b61073e565b6040516102479190613f23565b60405180910390f35b61026a60048036038101906102659190613f69565b610875565b005b61028660048036038101906102819190613fec565b610918565b005b34801561029457600080fd5b506102af60048036038101906102aa9190614065565b6109fa565b6040516102bc9190613c36565b60405180910390f35b3480156102d157600080fd5b506102da610a1a565b6040516102e79190613ce1565b60405180910390f35b61030a600480360381019061030591906140e8565b610abd565b6040516103179190613f23565b60405180910390f35b34801561032c57600080fd5b50610335610d45565b604051610348979695949392919061423d565b60405180910390f35b34801561035d57600080fd5b5061037860048036038101906103739190614065565b610e47565b6040516103859190614429565b60405180910390f35b34801561039a57600080fd5b506103b560048036038101906103b0919061444b565b611082565b6040516103c29190613c36565b60405180910390f35b3480156103d757600080fd5b506103e06110f1565b6040516103ed9190613b32565b60405180910390f35b34801561040257600080fd5b5061041d60048036038101906104189190614065565b61111c565b60405161042a9190613c36565b60405180910390f35b34801561043f57600080fd5b5061045a60048036038101906104559190614065565b61113d565b6040516104679190613c36565b60405180910390f35b61048a600480360381019061048591906144aa565b61116e565b6040516104979190613b32565b60405180910390f35b3480156104ac57600080fd5b506104c760048036038101906104c29190614065565b61125e565b6040516104d49190614502565b60405180910390f35b6104f760048036038101906104f29190614573565b611284565b005b610513600480360381019061050e91906145df565b611403565b005b34801561052157600080fd5b5061053c60048036038101906105379190613bc6565b6114d1565b6040516105499190613c36565b60405180910390f35b34801561055e57600080fd5b50610567611530565b6040516105749190613b32565b60405180910390f35b34801561058957600080fd5b5061059261153f565b60405161059f919061466b565b60405180910390f35b6105c260048036038101906105bd91906146a5565b611567565b6040516105cf9190613b32565b60405180910390f35b60007fdbfdf8dc2b135c26253e00d5b6cbe6f20457e003fd526d97cea183883570de6160001b905090565b60008061060e611632565b9050600084849050905060005b81811015610657576106473387878481811061063a576106396146ee565b5b905060200201358561163a565b61065081611775565b905061061b565b50819250505092915050565b6060600280546106729061474c565b80601f016020809104026020016040519081016040528092919081815260200182805461069e9061474c565b80156106eb5780601f106106c0576101008083540402835291602001916106eb565b820191906000526020600020905b8154815290600101906020018083116106ce57829003601f168201915b5050505050905090565b6000600360008373ffffffffffffffffffffffffffffffffffffffff1673ffffffffffffffffffffffffffffffffffffffff168152602001908152602001600020549050919050565b606060008383905067ffffffffffffffff81111561075f5761075e61477d565b5b60405190808252806020026020018201604052801561079257816020015b606081526020019060019003908161077d5790505b50905060008034905060005b8686905081101561085f5760006001888890500382149050368888848181106107ca576107c96146ee565b5b90506020028101906107dc91906147bb565b9050600061080b82600001358380602001906107f891906147e3565b906108039190614b44565b338887611782565b905080600001518561081d9190614b88565b94508060200151878581518110610837576108366146ee565b5b60200260200101819052508060200151518601955050505061085881611775565b905061079e565b5061086a8383611e53565b935050505092915050565b6000600167ffffffffffffffff8111156108925761089161477d565b5b6040519080825280602002602001820160405280156108cb57816020015b6108b86139df565b8152602001906001900390816108b05790505b509050816020018036038101906108e29190614c0c565b816000815181106108f6576108f56146ee565b5b602002602001018190525061091382600001358233346001611f48565b505050565b600034905060005b838390508110156109f457600060018585905003821490503685858481811061094c5761094b6146ee565b5b905060200281019061095e9190614c39565b90506109d581600001358280602001906109789190614c61565b808060200260200160405190810160405280939291908181526020016000905b828210156109c8578484839050604002018036038101906109b99190614c0c565b81526020019060010190610998565b5050505050338786611f48565b846109e09190614b88565b935050506109ed81611775565b9050610920565b50505050565b600080610a05611632565b9050610a118382612617565b80915050919050565b6060610a457f00000000000000000000000000000000000000000000000000000000000000006126f8565b610a6e7f00000000000000000000000000000000000000000000000000000000000000006126f8565b610a977f00000000000000000000000000000000000000000000000000000000000000006126f8565b604051602001610aa993929190614d4c565b604051602081830303815290604052905090565b606060008383905067ffffffffffffffff811115610ade57610add61477d565b5b604051908082528060200260200182016040528015610b1157816020015b6060815260200190600190039081610afc5790505b50905060008034905060005b86869050811015610d2f576000600188889050038214905036888884818110610b4957610b486146ee565b5b9050602002810190610b5b9190614d93565b9050366000828060200190610b7091906147e3565b915091506000828290501480610b9a5750828060400190610b919190614dbb565b90508282905014155b15610bd1576040517f947d5a8400000000000000000000000000000000000000000000000000000000815260040160405180910390fd5b60005b82829050811015610ca757610c97604051806080016040528086600001358152602001858585818110610c0a57610c096146ee565b5b9050602002810190610c1c9190614e1e565b610c2590614e46565b8152602001868060400190610c3a9190614dbb565b85818110610c4b57610c4a6146ee565b5b905060600201803603810190610c619190614ef6565b8152602001866060016020810190610c799190613d61565b73ffffffffffffffffffffffffffffffffffffffff168152506127c6565b610ca081611775565b9050610bd4565b506000610cd98460000135848490610cbf9190614b44565b866060016020810190610cd29190613d61565b8a89611782565b9050806000015187610ceb9190614b88565b96508060200151898781518110610d0557610d046146ee565b5b6020026020010181905250806020015151880197505050505050610d2881611775565b9050610b1d565b50610d3a8383611e53565b935050505092915050565b600060608060008060006060610d8560007f000000000000000000000000000000000000000000000000000000000000000061293890919063ffffffff16565b610db960017f000000000000000000000000000000000000000000000000000000000000000061293890919063ffffffff16565b46306000801b600067ffffffffffffffff811115610dda57610dd961477d565b5b604051908082528060200260200182016040528015610e085781602001602082028036833780820191505090505b507f0f00000000000000000000000000000000000000000000000000000000000000959493929190965096509650965096509650965090919293949596565b610e4f6139fc565b600460008381526020019081526020016000206040518061014001604052908160008201548152602001600182015481526020016002820160009054906101000a900467ffffffffffffffff1667ffffffffffffffff1667ffffffffffffffff1681526020016002820160089054906101000a900467ffffffffffffffff1667ffffffffffffffff1667ffffffffffffffff1681526020016002820160109054906101000a900467ffffffffffffffff1667ffffffffffffffff1667ffffffffffffffff168152602001600382015481526020016004820160009054906101000a900473ffffffffffffffffffffffffffffffffffffffff1673ffffffffffffffffffffffffffffffffffffffff1673ffffffffffffffffffffffffffffffffffffffff1681526020016005820160009054906101000a900473ffffffffffffffffffffffffffffffffffffffff1673ffffffffffffffffffffffffffffffffffffffff1673ffffffffffffffffffffffffffffffffffffffff1681526020016005820160149054906101000a900460ff16151515158152602001600682018054610ff99061474c565b80601f01602080910402602001604051908101604052809291908181526020018280546110259061474c565b80156110725780601f1061104757610100808354040283529160200191611072565b820191906000526020600020905b81548152906001019060200180831161105557829003601f168201915b5050505050815250509050919050565b6000600660008473ffffffffffffffffffffffffffffffffffffffff1673ffffffffffffffffffffffffffffffffffffffff168152602001908152602001600020600083815260200190815260200160002060009054906101000a900467ffffffffffffffff16905092915050565b60007fa98d02348410c9c76735e0d0bb1396f4015ac2bb9615f9c2611d19d7a8a9965060001b905090565b600080611127611632565b905061113433848361163a565b80915050919050565b60006005600083815260200190815260200160002060009054906101000a900467ffffffffffffffff169050919050565b60006111828261117d90614fb7565b6127c6565b6000600167ffffffffffffffff81111561119f5761119e61477d565b5b6040519080825280602002602001820160405280156111d857816020015b6111c5613aa4565b8152602001906001900390816111bd5790505b5090508280602001906111eb9190614e1e565b6111f490614e46565b81600081518110611208576112076146ee565b5b60200260200101819052506112378360000135828560a001602081019061122f9190613d61565b346001611782565b6020015160008151811061124e5761124d6146ee565b5b6020026020010151915050919050565b60008060001b600460008481526020019081526020016000206000015414159050919050565b600034905060005b838390508110156113fd576000600185859050038214905060008585848181106112b9576112b86146ee565b5b90506020028101906112cb9190614fca565b6112d490615228565b90506000816020015190506000815114806112f55750816040015151815114155b1561132c576040517f947d5a8400000000000000000000000000000000000000000000000000000000815260040160405180910390fd5b60005b81518110156113c7576113b7604051806080016040528085600001518152602001848481518110611363576113626146ee565b5b6020026020010151815260200185604001518481518110611387576113866146ee565b5b60200260200101518152602001856060015173ffffffffffffffffffffffffffffffffffffffff168152506129e8565b6113c081611775565b905061132f565b506113dd82600001518284606001518887611f48565b856113e89190614b88565b94505050506113f681611775565b905061128c565b50505050565b61141c8180360381019061141791906152b3565b6129e8565b6000600167ffffffffffffffff8111156114395761143861477d565b5b60405190808252806020026020018201604052801561147257816020015b61145f6139df565b8152602001906001900390816114575790505b509050816020018036038101906114899190614c0c565b8160008151811061149d5761149c6146ee565b5b60200260200101819052506114cc8260000135828460c00160208101906114c49190613d61565b346001611f48565b505050565b6000806114dc611632565b9050600084849050905060005b8181101561152457611514868683818110611507576115066146ee565b5b9050602002013584612617565b61151d81611775565b90506114e9565b50819250505092915050565b600061153a612b3b565b905090565b60007f0000000000000000000000000000000000000000000000000000000000000000905090565b600080600167ffffffffffffffff8111156115855761158461477d565b5b6040519080825280602002602001820160405280156115be57816020015b6115ab613aa4565b8152602001906001900390816115a35790505b5090508280602001906115d19190614e1e565b6115da90614e46565b816000815181106115ee576115ed6146ee565b5b602002602001018190525061160b83600001358233346001611782565b60200151600081518110611622576116216146ee565b5b6020026020010151915050919050565b600042905090565b6000600660008573ffffffffffffffffffffffffffffffffffffffff1673ffffffffffffffffffffffffffffffffffffffff1681526020019081526020016000209050600081600085815260200190815260200160002060009054906101000a900467ffffffffffffffff1667ffffffffffffffff16146116e7576040517fec9d6eeb00000000000000000000000000000000000000000000000000000000815260040160405180910390fd5b8181600085815260200190815260200160002060006101000a81548167ffffffffffffffff021916908367ffffffffffffffff1602179055508167ffffffffffffffff16838573ffffffffffffffffffffffffffffffffffffffff167f92a1f7a41a7c585a8b09e25b195e225b1d43248daca46b0faf9e0792777a222960405160405180910390a450505050565b6000600182019050919050565b61178a613aff565b600085519050611798613aff565b8167ffffffffffffffff8111156117b2576117b161477d565b5b6040519080825280602002602001820160405280156117e05781602001602082028036833780820191505090505b50816020018190525060007f000000000000000000000000000000000000000000000000000000000000000073ffffffffffffffffffffffffffffffffffffffff1663a2ea7c6e8a6040518263ffffffff1660e01b81526004016118449190613b32565b600060405180830381865afa158015611861573d6000803e3d6000fd5b505050506040513d6000823e3d601f19601f8201168201806040525081019061188a919061547d565b90506000801b8160000151036118cc576040517fbf37b20e00000000000000000000000000000000000000000000000000000000815260040160405180910390fd5b60008367ffffffffffffffff8111156118e8576118e761477d565b5b60405190808252806020026020018201604052801561192157816020015b61190e6139fc565b8152602001906001900390816119065790505b50905060008467ffffffffffffffff8111156119405761193f61477d565b5b60405190808252806020026020018201604052801561196e5781602001602082028036833780820191505090505b50905060005b85811015611e295760008b8281518110611991576119906146ee565b5b60200260200101519050600067ffffffffffffffff16816020015167ffffffffffffffff16141580156119e357506119c7611632565b67ffffffffffffffff16816020015167ffffffffffffffff1611155b15611a1a576040517f08e8b93700000000000000000000000000000000000000000000000000000000815260040160405180910390fd5b8460400151158015611a2d575080604001515b15611a64576040517f157bd4c300000000000000000000000000000000000000000000000000000000815260040160405180910390fd5b60006040518061014001604052806000801b81526020018f8152602001611a89611632565b67ffffffffffffffff168152602001836020015167ffffffffffffffff168152602001600067ffffffffffffffff16815260200183606001518152602001836000015173ffffffffffffffffffffffffffffffffffffffff1681526020018d73ffffffffffffffffffffffffffffffffffffffff16815260200183604001511515815260200183608001518152509050600080600090505b600115611b6057611b328382612bf2565b91506000801b60046000848152602001908152602001600020600001540315611b6057806001019050611b21565b818360000181815250508260046000848152602001908152602001600020600082015181600001556020820151816001015560408201518160020160006101000a81548167ffffffffffffffff021916908367ffffffffffffffff16021790555060608201518160020160086101000a81548167ffffffffffffffff021916908367ffffffffffffffff16021790555060808201518160020160106101000a81548167ffffffffffffffff021916908367ffffffffffffffff16021790555060a0820151816003015560c08201518160040160006101000a81548173ffffffffffffffffffffffffffffffffffffffff021916908373ffffffffffffffffffffffffffffffffffffffff16021790555060e08201518160050160006101000a81548173ffffffffffffffffffffffffffffffffffffffff021916908373ffffffffffffffffffffffffffffffffffffffff1602179055506101008201518160050160146101000a81548160ff021916908315150217905550610120820151816006019081611cee9190615668565b509050506000801b846060015114611d4457611d0d846060015161125e565b611d43576040517fc5723b5100000000000000000000000000000000000000000000000000000000815260040160405180910390fd5b5b82878681518110611d5857611d576146ee565b5b60200260200101819052508360a00151868681518110611d7b57611d7a6146ee565b5b6020026020010181815250508189602001518681518110611d9f57611d9e6146ee565b5b6020026020010181815250508f8e73ffffffffffffffffffffffffffffffffffffffff16856000015173ffffffffffffffffffffffffffffffffffffffff167f8bf46bf4cfd674fa735a3d63ec1c9ad4153f033c290341f3a588b75685141b3585604051611e0d9190613b32565b60405180910390a450505050611e2281611775565b9050611974565b50611e3983838360008c8c612c55565b846000018181525050839550505050505095945050505050565b606060008267ffffffffffffffff811115611e7157611e7061477d565b5b604051908082528060200260200182016040528015611e9f5781602001602082028036833780820191505090505b5090506000805b8551811015611f3c576000868281518110611ec457611ec36146ee565b5b6020026020010151905060005b8151811015611f2a57818181518110611eed57611eec6146ee565b5b6020026020010151858581518110611f0857611f076146ee565b5b602002602001018181525050836001019350611f2381611775565b9050611ed1565b5050611f3581611775565b9050611ea6565b50819250505092915050565b6000807f000000000000000000000000000000000000000000000000000000000000000073ffffffffffffffffffffffffffffffffffffffff1663a2ea7c6e886040518263ffffffff1660e01b8152600401611fa49190613b32565b600060405180830381865afa158015611fc1573d6000803e3d6000fd5b505050506040513d6000823e3d601f19601f82011682018060405250810190611fea919061547d565b90506000801b81600001510361202c576040517fbf37b20e00000000000000000000000000000000000000000000000000000000815260040160405180910390fd5b60008651905060008167ffffffffffffffff81111561204e5761204d61477d565b5b60405190808252806020026020018201604052801561208757816020015b6120746139fc565b81526020019060019003908161206c5790505b50905060008267ffffffffffffffff8111156120a6576120a561477d565b5b6040519080825280602002602001820160405280156120d45781602001602082028036833780820191505090505b50905060005b838110156125f85760008a82815181106120f7576120f66146ee565b5b602002602001015190506000600460008360000151815260200190815260200160002090506000801b81600001540361215c576040517fc5723b5100000000000000000000000000000000000000000000000000000000815260040160405180910390fd5b8c816001015414612199576040517fbf37b20e00000000000000000000000000000000000000000000000000000000815260040160405180910390fd5b8a73ffffffffffffffffffffffffffffffffffffffff168160050160009054906101000a900473ffffffffffffffffffffffffffffffffffffffff1673ffffffffffffffffffffffffffffffffffffffff1614612222576040517f4ca8886700000000000000000000000000000000000000000000000000000000815260040160405180910390fd5b8060050160149054906101000a900460ff1661226a576040517f157bd4c300000000000000000000000000000000000000000000000000000000815260040160405180910390fd5b60008160020160109054906101000a900467ffffffffffffffff1667ffffffffffffffff16146122c6576040517f905e710700000000000000000000000000000000000000000000000000000000815260040160405180910390fd5b6122ce611632565b8160020160106101000a81548167ffffffffffffffff021916908367ffffffffffffffff160217905550806040518061014001604052908160008201548152602001600182015481526020016002820160009054906101000a900467ffffffffffffffff1667ffffffffffffffff1667ffffffffffffffff1681526020016002820160089054906101000a900467ffffffffffffffff1667ffffffffffffffff1667ffffffffffffffff1681526020016002820160109054906101000a900467ffffffffffffffff1667ffffffffffffffff1667ffffffffffffffff168152602001600382015481526020016004820160009054906101000a900473ffffffffffffffffffffffffffffffffffffffff1673ffffffffffffffffffffffffffffffffffffffff1673ffffffffffffffffffffffffffffffffffffffff1681526020016005820160009054906101000a900473ffffffffffffffffffffffffffffffffffffffff1673ffffffffffffffffffffffffffffffffffffffff1673ffffffffffffffffffffffffffffffffffffffff1681526020016005820160149054906101000a900460ff161515151581526020016006820180546124909061474c565b80601f01602080910402602001604051908101604052809291908181526020018280546124bc9061474c565b80156125095780601f106124de57610100808354040283529160200191612509565b820191906000526020600020905b8154815290600101906020018083116124ec57829003601f168201915b505050505081525050858481518110612525576125246146ee565b5b60200260200101819052508160200151848481518110612548576125476146ee565b5b60200260200101818152505080600101548b73ffffffffffffffffffffffffffffffffffffffff168260040160009054906101000a900473ffffffffffffffffffffffffffffffffffffffff1673ffffffffffffffffffffffffffffffffffffffff167ff930a6e2523c9cc298691873087a740550b8fc85a0680830414c148ed927f61585600001516040516125de9190613b32565b60405180910390a450506125f181611775565b90506120da565b5061260884838360018b8b612c55565b94505050505095945050505050565b60006005600084815260200190815260200160002060009054906101000a900467ffffffffffffffff1667ffffffffffffffff1614612682576040517f2e26794600000000000000000000000000000000000000000000000000000000815260040160405180910390fd5b806005600084815260200190815260200160002060006101000a81548167ffffffffffffffff021916908367ffffffffffffffff1602179055508067ffffffffffffffff16827f5aafceeb1c7ad58e4a84898bdee37c02c0fc46e7d24e6b60e8209449f183459f60405160405180910390a35050565b60606000600161270784613034565b01905060008167ffffffffffffffff8111156127265761272561477d565b5b6040519080825280601f01601f1916602001820160405280156127585781602001600182028036833780820191505090505b509050600082602001820190505b6001156127bb578080600190039150507f3031323334353637383961626364656600000000000000000000000000000000600a86061a8153600a85816127af576127ae61573a565b5b04945060008503612766575b819350505050919050565b600081602001519050600082604001519050600060036000856060015173ffffffffffffffffffffffffffffffffffffffff1673ffffffffffffffffffffffffffffffffffffffff168152602001908152602001600020600081548092919060010191905055905060006128af7fdbfdf8dc2b135c26253e00d5b6cbe6f20457e003fd526d97cea183883570de6160001b866000015186600001518760200151886040015189606001518a608001518051906020012089604051602001612894989796959493929190615769565b60405160208183030381529060405280519060200120613187565b9050846060015173ffffffffffffffffffffffffffffffffffffffff166128e4828560000151866020015187604001516131a1565b73ffffffffffffffffffffffffffffffffffffffff1614612931576040517f8baa579f00000000000000000000000000000000000000000000000000000000815260040160405180910390fd5b5050505050565b606060ff60001b83146129555761294e836131cc565b90506129e2565b8180546129619061474c565b80601f016020809104026020016040519081016040528092919081815260200182805461298d9061474c565b80156129da5780601f106129af576101008083540402835291602001916129da565b820191906000526020600020905b8154815290600101906020018083116129bd57829003601f168201915b505050505090505b92915050565b600081602001519050600082604001519050600060036000856060015173ffffffffffffffffffffffffffffffffffffffff1673ffffffffffffffffffffffffffffffffffffffff16815260200190815260200160002060008154809291906001019190505590506000612ab27fa98d02348410c9c76735e0d0bb1396f4015ac2bb9615f9c2611d19d7a8a9965060001b8660000151866000015185604051602001612a9794939291906157e7565b60405160208183030381529060405280519060200120613187565b9050846060015173ffffffffffffffffffffffffffffffffffffffff16612ae7828560000151866020015187604001516131a1565b73ffffffffffffffffffffffffffffffffffffffff1614612b34576040517f8baa579f00000000000000000000000000000000000000000000000000000000815260040160405180910390fd5b5050505050565b60007f000000000000000000000000000000000000000000000000000000000000000073ffffffffffffffffffffffffffffffffffffffff163073ffffffffffffffffffffffffffffffffffffffff16148015612bb757507f000000000000000000000000000000000000000000000000000000000000000046145b15612be4577f00000000000000000000000000000000000000000000000000000000000000009050612bef565b612bec613240565b90505b90565b600082602001518360c001518460e00151856040015186606001518761010001518860a0015189610120015189604051602001612c3799989796959493929190615995565b60405160208183030381529060405280519060200120905092915050565b6000808651905060018103612cb057612ca88888600081518110612c7c57612c7b6146ee565b5b602002602001015188600081518110612c9857612c976146ee565b5b60200260200101518888886132d6565b91505061302a565b600088602001519050600073ffffffffffffffffffffffffffffffffffffffff168173ffffffffffffffffffffffffffffffffffffffff1603612d685760005b82811015612d5c576000888281518110612d0d57612d0c6146ee565b5b602002602001015114612d4c576040517f1574f9f300000000000000000000000000000000000000000000000000000000815260040160405180910390fd5b612d5581611775565b9050612cf0565b5060009250505061302a565b6000805b83811015612e9c576000898281518110612d8957612d886146ee565b5b6020026020010151905060008114158015612e1057508373ffffffffffffffffffffffffffffffffffffffff1663ce46e0466040518163ffffffff1660e01b8152600401602060405180830381865afa158015612dea573d6000803e3d6000fd5b505050506040513d601f19601f82011682018060405250810190612e0e9190615a34565b155b15612e47576040517f1574f9f300000000000000000000000000000000000000000000000000000000815260040160405180910390fd5b87811115612e81576040517f1101129400000000000000000000000000000000000000000000000000000000815260040160405180910390fd5b8088039750808301925050612e9581611775565b9050612d6c565b508615612f5d578173ffffffffffffffffffffffffffffffffffffffff166388e5b2d9828b8b6040518463ffffffff1660e01b8152600401612edf929190615bfd565b60206040518083038185885af1158015612efd573d6000803e3d6000fd5b50505050506040513d601f19601f82011682018060405250810190612f229190615a34565b612f58576040517fbf2f3a8b00000000000000000000000000000000000000000000000000000000815260040160405180910390fd5b613013565b8173ffffffffffffffffffffffffffffffffffffffff166391db0b7e828b8b6040518463ffffffff1660e01b8152600401612f99929190615bfd565b60206040518083038185885af1158015612fb7573d6000803e3d6000fd5b50505050506040513d601f19601f82011682018060405250810190612fdc9190615a34565b613012576040517fe8bee83900000000000000000000000000000000000000000000000000000000815260040160405180910390fd5b5b841561302357613022866135dc565b5b8093505050505b9695505050505050565b600080600090507a184f03e93ff9f4daa797ed6e38ed64bf6a1f0100000000000000008310613092577a184f03e93ff9f4daa797ed6e38ed64bf6a1f01000000000000000083816130885761308761573a565b5b0492506040810190505b6d04ee2d6d415b85acef810000000083106130cf576d04ee2d6d415b85acef810000000083816130c5576130c461573a565b5b0492506020810190505b662386f26fc1000083106130fe57662386f26fc1000083816130f4576130f361573a565b5b0492506010810190505b6305f5e1008310613127576305f5e100838161311d5761311c61573a565b5b0492506008810190505b612710831061314c5761271083816131425761314161573a565b5b0492506004810190505b6064831061316f57606483816131655761316461573a565b5b0492506002810190505b600a831061317e576001810190505b80915050919050565b600061319a613194612b3b565b83613612565b9050919050565b60008060006131b287878787613653565b915091506131bf81613735565b8192505050949350505050565b606060006131d98361389b565b90506000602067ffffffffffffffff8111156131f8576131f761477d565b5b6040519080825280601f01601f19166020018201604052801561322a5781602001600182028036833780820191505090505b5090508181528360208201528092505050919050565b60007f8b73c3c69bb8fe3d512ecc4cf759cc79239f7b179b0ffacaa9a75d522b39400f7f00000000000000000000000000000000000000000000000000000000000000007f000000000000000000000000000000000000000000000000000000000000000046306040516020016132bb959493929190615c34565b60405160208183030381529060405280519060200120905090565b60008087602001519050600073ffffffffffffffffffffffffffffffffffffffff168173ffffffffffffffffffffffffffffffffffffffff1603613358576000861461334e576040517f1574f9f300000000000000000000000000000000000000000000000000000000815260040160405180910390fd5b60009150506135d2565b600086141580156133d557508073ffffffffffffffffffffffffffffffffffffffff1663ce46e0466040518163ffffffff1660e01b8152600401602060405180830381865afa1580156133af573d6000803e3d6000fd5b505050506040513d601f19601f820116820180604052508101906133d39190615a34565b155b1561340c576040517f1574f9f300000000000000000000000000000000000000000000000000000000815260040160405180910390fd5b83861115613446576040517f1101129400000000000000000000000000000000000000000000000000000000815260040160405180910390fd5b85840393508415613509578073ffffffffffffffffffffffffffffffffffffffff1663e49617e187896040518363ffffffff1660e01b815260040161348b9190614429565b60206040518083038185885af11580156134a9573d6000803e3d6000fd5b50505050506040513d601f19601f820116820180604052508101906134ce9190615a34565b613504576040517fccf3bb2700000000000000000000000000000000000000000000000000000000815260040160405180910390fd5b6135bd565b8073ffffffffffffffffffffffffffffffffffffffff1663e60c350587896040518363ffffffff1660e01b81526004016135439190614429565b60206040518083038185885af1158015613561573d6000803e3d6000fd5b50505050506040513d601f19601f820116820180604052508101906135869190615a34565b6135bc576040517fbd8ba84d00000000000000000000000000000000000000000000000000000000815260040160405180910390fd5b5b82156135cd576135cc846135dc565b5b859150505b9695505050505050565b600081111561360f5761360e813373ffffffffffffffffffffffffffffffffffffffff166138eb90919063ffffffff16565b5b50565b60006040517f190100000000000000000000000000000000000000000000000000000000000081528360028201528260228201526042812091505092915050565b6000807f7fffffffffffffffffffffffffffffff5d576e7357a4501ddfe92f46681b20a08360001c111561368e57600060039150915061372c565b6000600187878787604051600081526020016040526040516136b39493929190615c96565b6020604051602081039080840390855afa1580156136d5573d6000803e3d6000fd5b505050602060405103519050600073ffffffffffffffffffffffffffffffffffffffff168173ffffffffffffffffffffffffffffffffffffffff16036137235760006001925092505061372c565b80600092509250505b94509492505050565b6000600481111561374957613748615cdb565b5b81600481111561375c5761375b615cdb565b5b0315613898576001600481111561377657613775615cdb565b5b81600481111561378957613788615cdb565b5b036137c9576040517f08c379a00000000000000000000000000000000000000000000000000000000081526004016137c090615d56565b60405180910390fd5b600260048111156137dd576137dc615cdb565b5b8160048111156137f0576137ef615cdb565b5b03613830576040517f08c379a000000000000000000000000000000000000000000000000000000000815260040161382790615dc2565b60405180910390fd5b6003600481111561384457613843615cdb565b5b81600481111561385757613856615cdb565b5b03613897576040517f08c379a000000000000000000000000000000000000000000000000000000000815260040161388e90615e54565b60405180910390fd5b5b50565b60008060ff8360001c169050601f8111156138e2576040517fb3512b0c00000000000000000000000000000000000000000000000000000000815260040160405180910390fd5b80915050919050565b8047101561392e576040517f08c379a000000000000000000000000000000000000000000000000000000000815260040161392590615ec0565b60405180910390fd5b60008273ffffffffffffffffffffffffffffffffffffffff168260405161395490615f06565b60006040518083038185875af1925050503d8060008114613991576040519150601f19603f3d011682016040523d82523d6000602084013e613996565b606091505b50509050806139da576040517f08c379a00000000000000000000000000000000000000000000000000000000081526004016139d190615f8d565b60405180910390fd5b505050565b604051806040016040528060008019168152602001600081525090565b6040518061014001604052806000801916815260200160008019168152602001600067ffffffffffffffff168152602001600067ffffffffffffffff168152602001600067ffffffffffffffff16815260200160008019168152602001600073ffffffffffffffffffffffffffffffffffffffff168152602001600073ffffffffffffffffffffffffffffffffffffffff168152602001600015158152602001606081525090565b6040518060c00160405280600073ffffffffffffffffffffffffffffffffffffffff168152602001600067ffffffffffffffff1681526020016000151581526020016000801916815260200160608152602001600081525090565b604051806040016040528060008152602001606081525090565b6000819050919050565b613b2c81613b19565b82525050565b6000602082019050613b476000830184613b23565b92915050565b6000604051905090565b600080fd5b600080fd5b600080fd5b600080fd5b600080fd5b60008083601f840112613b8657613b85613b61565b5b8235905067ffffffffffffffff811115613ba357613ba2613b66565b5b602083019150836020820283011115613bbf57613bbe613b6b565b5b9250929050565b60008060208385031215613bdd57613bdc613b57565b5b600083013567ffffffffffffffff811115613bfb57613bfa613b5c565b5b613c0785828601613b70565b92509250509250929050565b600067ffffffffffffffff82169050919050565b613c3081613c13565b82525050565b6000602082019050613c4b6000830184613c27565b92915050565b600081519050919050565b600082825260208201905092915050565b60005b83811015613c8b578082015181840152602081019050613c70565b60008484015250505050565b6000601f19601f8301169050919050565b6000613cb382613c51565b613cbd8185613c5c565b9350613ccd818560208601613c6d565b613cd681613c97565b840191505092915050565b60006020820190508181036000830152613cfb8184613ca8565b905092915050565b600073ffffffffffffffffffffffffffffffffffffffff82169050919050565b6000613d2e82613d03565b9050919050565b613d3e81613d23565b8114613d4957600080fd5b50565b600081359050613d5b81613d35565b92915050565b600060208284031215613d7757613d76613b57565b5b6000613d8584828501613d4c565b91505092915050565b6000819050919050565b613da181613d8e565b82525050565b6000602082019050613dbc6000830184613d98565b92915050565b60008083601f840112613dd857613dd7613b61565b5b8235905067ffffffffffffffff811115613df557613df4613b66565b5b602083019150836020820283011115613e1157613e10613b6b565b5b9250929050565b60008060208385031215613e2f57613e2e613b57565b5b600083013567ffffffffffffffff811115613e4d57613e4c613b5c565b5b613e5985828601613dc2565b92509250509250929050565b600081519050919050565b600082825260208201905092915050565b6000819050602082019050919050565b613e9a81613b19565b82525050565b6000613eac8383613e91565b60208301905092915050565b6000602082019050919050565b6000613ed082613e65565b613eda8185613e70565b9350613ee583613e81565b8060005b83811015613f16578151613efd8882613ea0565b9750613f0883613eb8565b925050600181019050613ee9565b5085935050505092915050565b60006020820190508181036000830152613f3d8184613ec5565b905092915050565b600080fd5b600060608284031215613f6057613f5f613f45565b5b81905092915050565b600060608284031215613f7f57613f7e613b57565b5b6000613f8d84828501613f4a565b91505092915050565b60008083601f840112613fac57613fab613b61565b5b8235905067ffffffffffffffff811115613fc957613fc8613b66565b5b602083019150836020820283011115613fe557613fe4613b6b565b5b9250929050565b6000806020838503121561400357614002613b57565b5b600083013567ffffffffffffffff81111561402157614020613b5c565b5b61402d85828601613f96565b92509250509250929050565b61404281613b19565b811461404d57600080fd5b50565b60008135905061405f81614039565b92915050565b60006020828403121561407b5761407a613b57565b5b600061408984828501614050565b91505092915050565b60008083601f8401126140a8576140a7613b61565b5b8235905067ffffffffffffffff8111156140c5576140c4613b66565b5b6020830191508360208202830111156140e1576140e0613b6b565b5b9250929050565b600080602083850312156140ff576140fe613b57565b5b600083013567ffffffffffffffff81111561411d5761411c613b5c565b5b61412985828601614092565b92509250509250929050565b60007fff0000000000000000000000000000000000000000000000000000000000000082169050919050565b61416a81614135565b82525050565b61417981613d23565b82525050565b600081519050919050565b600082825260208201905092915050565b6000819050602082019050919050565b6141b481613d8e565b82525050565b60006141c683836141ab565b60208301905092915050565b6000602082019050919050565b60006141ea8261417f565b6141f4818561418a565b93506141ff8361419b565b8060005b8381101561423057815161421788826141ba565b9750614222836141d2565b925050600181019050614203565b5085935050505092915050565b600060e082019050614252600083018a614161565b81810360208301526142648189613ca8565b905081810360408301526142788188613ca8565b90506142876060830187613d98565b6142946080830186614170565b6142a160a0830185613b23565b81810360c08301526142b381846141df565b905098975050505050505050565b6142ca81613c13565b82525050565b6142d981613d23565b82525050565b60008115159050919050565b6142f4816142df565b82525050565b600081519050919050565b600082825260208201905092915050565b6000614321826142fa565b61432b8185614305565b935061433b818560208601613c6d565b61434481613c97565b840191505092915050565b6000610140830160008301516143686000860182613e91565b50602083015161437b6020860182613e91565b50604083015161438e60408601826142c1565b5060608301516143a160608601826142c1565b5060808301516143b460808601826142c1565b5060a08301516143c760a0860182613e91565b5060c08301516143da60c08601826142d0565b5060e08301516143ed60e08601826142d0565b506101008301516144026101008601826142eb565b5061012083015184820361012086015261441c8282614316565b9150508091505092915050565b60006020820190508181036000830152614443818461434f565b905092915050565b6000806040838503121561446257614461613b57565b5b600061447085828601613d4c565b925050602061448185828601614050565b9150509250929050565b600060c082840312156144a1576144a0613f45565b5b81905092915050565b6000602082840312156144c0576144bf613b57565b5b600082013567ffffffffffffffff8111156144de576144dd613b5c565b5b6144ea8482850161448b565b91505092915050565b6144fc816142df565b82525050565b600060208201905061451760008301846144f3565b92915050565b60008083601f84011261453357614532613b61565b5b8235905067ffffffffffffffff8111156145505761454f613b66565b5b60208301915083602082028301111561456c5761456b613b6b565b5b9250929050565b6000806020838503121561458a57614589613b57565b5b600083013567ffffffffffffffff8111156145a8576145a7613b5c565b5b6145b48582860161451d565b92509250509250929050565b600060e082840312156145d6576145d5613f45565b5b81905092915050565b600060e082840312156145f5576145f4613b57565b5b6000614603848285016145c0565b91505092915050565b6000819050919050565b600061463161462c61462784613d03565b61460c565b613d03565b9050919050565b600061464382614616565b9050919050565b600061465582614638565b9050919050565b6146658161464a565b82525050565b6000602082019050614680600083018461465c565b92915050565b60006040828403121561469c5761469b613f45565b5b81905092915050565b6000602082840312156146bb576146ba613b57565b5b600082013567ffffffffffffffff8111156146d9576146d8613b5c565b5b6146e584828501614686565b91505092915050565b7f4e487b7100000000000000000000000000000000000000000000000000000000600052603260045260246000fd5b7f4e487b7100000000000000000000000000000000000000000000000000000000600052602260045260246000fd5b6000600282049050600182168061476457607f821691505b6020821081036147775761477661471d565b5b50919050565b7f4e487b7100000000000000000000000000000000000000000000000000000000600052604160045260246000fd5b600080fd5b600080fd5b600080fd5b6000823560016040038336030381126147d7576147d66147ac565b5b80830191505092915050565b60008083356001602003843603038112614800576147ff6147ac565b5b80840192508235915067ffffffffffffffff821115614822576148216147b1565b5b60208301925060208202360383131561483e5761483d6147b6565b5b509250929050565b61484f82613c97565b810181811067ffffffffffffffff8211171561486e5761486d61477d565b5b80604052505050565b6000614881613b4d565b905061488d8282614846565b919050565b600067ffffffffffffffff8211156148ad576148ac61477d565b5b602082029050602081019050919050565b600080fd5b600080fd5b6148d181613c13565b81146148dc57600080fd5b50565b6000813590506148ee816148c8565b92915050565b6148fd816142df565b811461490857600080fd5b50565b60008135905061491a816148f4565b92915050565b600080fd5b600067ffffffffffffffff8211156149405761493f61477d565b5b61494982613c97565b9050602081019050919050565b82818337600083830152505050565b600061497861497384614925565b614877565b90508281526020810184848401111561499457614993614920565b5b61499f848285614956565b509392505050565b600082601f8301126149bc576149bb613b61565b5b81356149cc848260208601614965565b91505092915050565b6149de81613d8e565b81146149e957600080fd5b50565b6000813590506149fb816149d5565b92915050565b600060c08284031215614a1757614a166148be565b5b614a2160c0614877565b90506000614a3184828501613d4c565b6000830152506020614a45848285016148df565b6020830152506040614a598482850161490b565b6040830152506060614a6d84828501614050565b606083015250608082013567ffffffffffffffff811115614a9157614a906148c3565b5b614a9d848285016149a7565b60808301525060a0614ab1848285016149ec565b60a08301525092915050565b6000614ad0614acb84614892565b614877565b90508083825260208201905060208402830185811115614af357614af2613b6b565b5b835b81811015614b3a57803567ffffffffffffffff811115614b1857614b17613b61565b5b808601614b258982614a01565b85526020850194505050602081019050614af5565b5050509392505050565b6000614b51368484614abd565b905092915050565b7f4e487b7100000000000000000000000000000000000000000000000000000000600052601160045260246000fd5b6000614b9382613d8e565b9150614b9e83613d8e565b9250828203905081811115614bb657614bb5614b59565b5b92915050565b600060408284031215614bd257614bd16148be565b5b614bdc6040614877565b90506000614bec84828501614050565b6000830152506020614c00848285016149ec565b60208301525092915050565b600060408284031215614c2257614c21613b57565b5b6000614c3084828501614bbc565b91505092915050565b600082356001604003833603038112614c5557614c546147ac565b5b80830191505092915050565b60008083356001602003843603038112614c7e57614c7d6147ac565b5b80840192508235915067ffffffffffffffff821115614ca057614c9f6147b1565b5b602083019250604082023603831315614cbc57614cbb6147b6565b5b509250929050565b600081905092915050565b6000614cda82613c51565b614ce48185614cc4565b9350614cf4818560208601613c6d565b80840191505092915050565b7f2e00000000000000000000000000000000000000000000000000000000000000600082015250565b6000614d36600183614cc4565b9150614d4182614d00565b600182019050919050565b6000614d588286614ccf565b9150614d6382614d29565b9150614d6f8285614ccf565b9150614d7a82614d29565b9150614d868284614ccf565b9150819050949350505050565b600082356001608003833603038112614daf57614dae6147ac565b5b80830191505092915050565b60008083356001602003843603038112614dd857614dd76147ac565b5b80840192508235915067ffffffffffffffff821115614dfa57614df96147b1565b5b602083019250606082023603831315614e1657614e156147b6565b5b509250929050565b60008235600160c003833603038112614e3a57614e396147ac565b5b80830191505092915050565b6000614e523683614a01565b9050919050565b600060ff82169050919050565b614e6f81614e59565b8114614e7a57600080fd5b50565b600081359050614e8c81614e66565b92915050565b600060608284031215614ea857614ea76148be565b5b614eb26060614877565b90506000614ec284828501614e7d565b6000830152506020614ed684828501614050565b6020830152506040614eea84828501614050565b60408301525092915050565b600060608284031215614f0c57614f0b613b57565b5b6000614f1a84828501614e92565b91505092915050565b600060c08284031215614f3957614f386148be565b5b614f436080614877565b90506000614f5384828501614050565b600083015250602082013567ffffffffffffffff811115614f7757614f766148c3565b5b614f8384828501614a01565b6020830152506040614f9784828501614e92565b60408301525060a0614fab84828501613d4c565b60608301525092915050565b6000614fc33683614f23565b9050919050565b600082356001608003833603038112614fe657614fe56147ac565b5b80830191505092915050565b600067ffffffffffffffff82111561500d5761500c61477d565b5b602082029050602081019050919050565b600061503161502c84614ff2565b614877565b9050808382526020820190506040840283018581111561505457615053613b6b565b5b835b8181101561507d57806150698882614bbc565b845260208401935050604081019050615056565b5050509392505050565b600082601f83011261509c5761509b613b61565b5b81356150ac84826020860161501e565b91505092915050565b600067ffffffffffffffff8211156150d0576150cf61477d565b5b602082029050602081019050919050565b60006150f46150ef846150b5565b614877565b9050808382526020820190506060840283018581111561511757615116613b6b565b5b835b81811015615140578061512c8882614e92565b845260208401935050606081019050615119565b5050509392505050565b600082601f83011261515f5761515e613b61565b5b813561516f8482602086016150e1565b91505092915050565b60006080828403121561518e5761518d6148be565b5b6151986080614877565b905060006151a884828501614050565b600083015250602082013567ffffffffffffffff8111156151cc576151cb6148c3565b5b6151d884828501615087565b602083015250604082013567ffffffffffffffff8111156151fc576151fb6148c3565b5b6152088482850161514a565b604083015250606061521c84828501613d4c565b60608301525092915050565b60006152343683615178565b9050919050565b600060e08284031215615251576152506148be565b5b61525b6080614877565b9050600061526b84828501614050565b600083015250602061527f84828501614bbc565b602083015250606061529384828501614e92565b60408301525060c06152a784828501613d4c565b60608301525092915050565b600060e082840312156152c9576152c8613b57565b5b60006152d78482850161523b565b91505092915050565b6000815190506152ef81614039565b92915050565b600061530082613d23565b9050919050565b615310816152f5565b811461531b57600080fd5b50565b60008151905061532d81615307565b92915050565b600081519050615342816148f4565b92915050565b600067ffffffffffffffff8211156153635761536261477d565b5b61536c82613c97565b9050602081019050919050565b600061538c61538784615348565b614877565b9050828152602081018484840111156153a8576153a7614920565b5b6153b3848285613c6d565b509392505050565b600082601f8301126153d0576153cf613b61565b5b81516153e0848260208601615379565b91505092915050565b6000608082840312156153ff576153fe6148be565b5b6154096080614877565b90506000615419848285016152e0565b600083015250602061542d8482850161531e565b602083015250604061544184828501615333565b604083015250606082015167ffffffffffffffff811115615465576154646148c3565b5b615471848285016153bb565b60608301525092915050565b60006020828403121561549357615492613b57565b5b600082015167ffffffffffffffff8111156154b1576154b0613b5c565b5b6154bd848285016153e9565b91505092915050565b60008190508160005260206000209050919050565b60006020601f8301049050919050565b600082821b905092915050565b6000600883026155287fffffffffffffffffffffffffffffffffffffffffffffffffffffffffffffffff826154eb565b61553286836154eb565b95508019841693508086168417925050509392505050565b600061556561556061555b84613d8e565b61460c565b613d8e565b9050919050565b6000819050919050565b61557f8361554a565b61559361558b8261556c565b8484546154f8565b825550505050565b600090565b6155a861559b565b6155b3818484615576565b505050565b5b818110156155d7576155cc6000826155a0565b6001810190506155b9565b5050565b601f82111561561c576155ed816154c6565b6155f6846154db565b81016020851015615605578190505b615619615611856154db565b8301826155b8565b50505b505050565b600082821c905092915050565b600061563f60001984600802615621565b1980831691505092915050565b6000615658838361562e565b9150826002028217905092915050565b615671826142fa565b67ffffffffffffffff81111561568a5761568961477d565b5b615694825461474c565b61569f8282856155db565b600060209050601f8311600181146156d257600084156156c0578287015190505b6156ca858261564c565b865550615732565b601f1984166156e0866154c6565b60005b82811015615708578489015182556001820191506020850194506020810190506156e3565b868310156157255784890151615721601f89168261562e565b8355505b6001600288020188555050505b505050505050565b7f4e487b7100000000000000000000000000000000000000000000000000000000600052601260045260246000fd5b60006101008201905061577f600083018b613b23565b61578c602083018a613b23565b6157996040830189614170565b6157a66060830188613c27565b6157b360808301876144f3565b6157c060a0830186613b23565b6157cd60c0830185613b23565b6157da60e0830184613d98565b9998505050505050505050565b60006080820190506157fc6000830187613b23565b6158096020830186613b23565b6158166040830185613b23565b6158236060830184613d98565b95945050505050565b6000819050919050565b61584761584282613b19565b61582c565b82525050565b60008160601b9050919050565b60006158658261584d565b9050919050565b60006158778261585a565b9050919050565b61588f61588a82613d23565b61586c565b82525050565b60008160c01b9050919050565b60006158ad82615895565b9050919050565b6158c56158c082613c13565b6158a2565b82525050565b60008160f81b9050919050565b60006158e3826158cb565b9050919050565b60006158f5826158d8565b9050919050565b61590d615908826142df565b6158ea565b82525050565b600081905092915050565b6000615929826142fa565b6159338185615913565b9350615943818560208601613c6d565b80840191505092915050565b600063ffffffff82169050919050565b60008160e01b9050919050565b60006159778261595f565b9050919050565b61598f61598a8261594f565b61596c565b82525050565b60006159a1828c615836565b6020820191506159b1828b61587e565b6014820191506159c1828a61587e565b6014820191506159d182896158b4565b6008820191506159e182886158b4565b6008820191506159f182876158fc565b600182019150615a018286615836565b602082019150615a11828561591e565b9150615a1d828461597e565b6004820191508190509a9950505050505050505050565b600060208284031215615a4a57615a49613b57565b5b6000615a5884828501615333565b91505092915050565b600081519050919050565b600082825260208201905092915050565b6000819050602082019050919050565b600061014083016000830151615aa66000860182613e91565b506020830151615ab96020860182613e91565b506040830151615acc60408601826142c1565b506060830151615adf60608601826142c1565b506080830151615af260808601826142c1565b5060a0830151615b0560a0860182613e91565b5060c0830151615b1860c08601826142d0565b5060e0830151615b2b60e08601826142d0565b50610100830151615b406101008601826142eb565b50610120830151848203610120860152615b5a8282614316565b9150508091505092915050565b6000615b738383615a8d565b905092915050565b6000602082019050919050565b6000615b9382615a61565b615b9d8185615a6c565b935083602082028501615baf85615a7d565b8060005b85811015615beb5784840389528151615bcc8582615b67565b9450615bd783615b7b565b925060208a01995050600181019050615bb3565b50829750879550505050505092915050565b60006040820190508181036000830152615c178185615b88565b90508181036020830152615c2b81846141df565b90509392505050565b600060a082019050615c496000830188613b23565b615c566020830187613b23565b615c636040830186613b23565b615c706060830185613d98565b615c7d6080830184614170565b9695505050505050565b615c9081614e59565b82525050565b6000608082019050615cab6000830187613b23565b615cb86020830186615c87565b615cc56040830185613b23565b615cd26060830184613b23565b95945050505050565b7f4e487b7100000000000000000000000000000000000000000000000000000000600052602160045260246000fd5b7f45434453413a20696e76616c6964207369676e61747572650000000000000000600082015250565b6000615d40601883613c5c565b9150615d4b82615d0a565b602082019050919050565b60006020820190508181036000830152615d6f81615d33565b9050919050565b7f45434453413a20696e76616c6964207369676e6174757265206c656e67746800600082015250565b6000615dac601f83613c5c565b9150615db782615d76565b602082019050919050565b60006020820190508181036000830152615ddb81615d9f565b9050919050565b7f45434453413a20696e76616c6964207369676e6174757265202773272076616c60008201527f7565000000000000000000000000000000000000000000000000000000000000602082015250565b6000615e3e602283613c5c565b9150615e4982615de2565b604082019050919050565b60006020820190508181036000830152615e6d81615e31565b9050919050565b7f416464726573733a20696e73756666696369656e742062616c616e6365000000600082015250565b6000615eaa601d83613c5c565b9150615eb582615e74565b602082019050919050565b60006020820190508181036000830152615ed981615e9d565b9050919050565b50565b6000615ef0600083615913565b9150615efb82615ee0565b600082019050919050565b6000615f1182615ee3565b9150819050919050565b7f416464726573733a20756e61626c6520746f2073656e642076616c75652c207260008201527f6563697069656e74206d61792068617665207265766572746564000000000000602082015250565b6000615f77603a83613c5c565b9150615f8282615f1b565b604082019050919050565b60006020820190508181036000830152615fa681615f6a565b905091905056fea26469706673582212206cc0f1fcd9e8b2e2cc83ea69f76a4b29a4515741a6a16a1b4d437947c59357ea64736f6c63430008130033",
  "linkReferences": {},
  "deployedLinkReferences": {}
}